{
  "_format": "hh-sol-artifact-1",
  "contractName": "MembershipPass1155",
  "sourceName": "contracts/MembershipPass1155.sol",
  "abi": [
    {
      "inputs": [
        {
          "internalType": "contract IERC20",
          "name": "usdcToken",
          "type": "address"
        },
        {
          "internalType": "string",
          "name": "uri",
          "type": "string"
        },
        {
          "internalType": "address",
          "name": "admin",
          "type": "address"
        }
      ],
      "stateMutability": "nonpayable",
      "type": "constructor"
    },
    {
      "inputs": [],
      "name": "AccessControlBadConfirmation",
      "type": "error"
    },
    {
      "inputs": [
        {
          "internalType": "address",
          "name": "account",
          "type": "address"
        },
        {
          "internalType": "bytes32",
          "name": "neededRole",
          "type": "bytes32"
        }
      ],
      "name": "AccessControlUnauthorizedAccount",
      "type": "error"
    },
    {
      "inputs": [
        {
          "internalType": "uint256",
          "name": "expected",
          "type": "uint256"
        },
        {
          "internalType": "uint256",
          "name": "provided",
          "type": "uint256"
        }
      ],
      "name": "AmountMismatch",
      "type": "error"
    },
    {
      "inputs": [
        {
          "internalType": "uint256",
          "name": "courseId",
          "type": "uint256"
        }
      ],
      "name": "CourseAlreadyExists",
      "type": "error"
    },
    {
      "inputs": [
        {
          "internalType": "uint256",
          "name": "courseId",
          "type": "uint256"
        }
      ],
      "name": "CourseNotFound",
      "type": "error"
    },
    {
      "inputs": [
        {
          "internalType": "address",
          "name": "sender",
          "type": "address"
        },
        {
          "internalType": "uint256",
          "name": "balance",
          "type": "uint256"
        },
        {
          "internalType": "uint256",
          "name": "needed",
          "type": "uint256"
        },
        {
          "internalType": "uint256",
          "name": "tokenId",
          "type": "uint256"
        }
      ],
      "name": "ERC1155InsufficientBalance",
      "type": "error"
    },
    {
      "inputs": [
        {
          "internalType": "address",
          "name": "approver",
          "type": "address"
        }
      ],
      "name": "ERC1155InvalidApprover",
      "type": "error"
    },
    {
      "inputs": [
        {
          "internalType": "uint256",
          "name": "idsLength",
          "type": "uint256"
        },
        {
          "internalType": "uint256",
          "name": "valuesLength",
          "type": "uint256"
        }
      ],
      "name": "ERC1155InvalidArrayLength",
      "type": "error"
    },
    {
      "inputs": [
        {
          "internalType": "address",
          "name": "operator",
          "type": "address"
        }
      ],
      "name": "ERC1155InvalidOperator",
      "type": "error"
    },
    {
      "inputs": [
        {
          "internalType": "address",
          "name": "receiver",
          "type": "address"
        }
      ],
      "name": "ERC1155InvalidReceiver",
      "type": "error"
    },
    {
      "inputs": [
        {
          "internalType": "address",
          "name": "sender",
          "type": "address"
        }
      ],
      "name": "ERC1155InvalidSender",
      "type": "error"
    },
    {
      "inputs": [
        {
          "internalType": "address",
          "name": "operator",
          "type": "address"
        },
        {
          "internalType": "address",
          "name": "owner",
          "type": "address"
        }
      ],
      "name": "ERC1155MissingApprovalForAll",
      "type": "error"
    },
    {
      "inputs": [],
      "name": "EnforcedPause",
      "type": "error"
    },
    {
      "inputs": [],
      "name": "ExpectedPause",
      "type": "error"
    },
    {
      "inputs": [],
      "name": "InvalidDuration",
      "type": "error"
    },
    {
      "inputs": [],
      "name": "InvalidSplitter",
      "type": "error"
    },
    {
      "inputs": [
        {
          "internalType": "uint256",
          "name": "courseId",
          "type": "uint256"
        },
        {
          "internalType": "address",
          "name": "account",
          "type": "address"
        }
      ],
      "name": "NotCourseCreator",
      "type": "error"
    },
    {
      "inputs": [
        {
          "internalType": "uint256",
          "name": "courseId",
          "type": "uint256"
        },
        {
          "internalType": "address",
          "name": "account",
          "type": "address"
        },
        {
          "internalType": "uint64",
          "name": "expiredAt",
          "type": "uint64"
        }
      ],
      "name": "PassExpired",
      "type": "error"
    },
    {
      "inputs": [],
      "name": "PriceCannotBeZero",
      "type": "error"
    },
    {
      "inputs": [],
      "name": "ReentrancyGuardReentrantCall",
      "type": "error"
    },
    {
      "inputs": [
        {
          "internalType": "uint256",
          "name": "courseId",
          "type": "uint256"
        },
        {
          "internalType": "address",
          "name": "account",
          "type": "address"
        }
      ],
      "name": "RenewalNotAllowed",
      "type": "error"
    },
    {
      "inputs": [
        {
          "internalType": "uint256",
          "name": "courseId",
          "type": "uint256"
        },
        {
          "internalType": "address",
          "name": "account",
          "type": "address"
        },
        {
          "internalType": "uint64",
          "name": "availableAt",
          "type": "uint64"
        }
      ],
      "name": "TransferCooldownActive",
      "type": "error"
    },
    {
      "inputs": [
        {
          "internalType": "address",
          "name": "caller",
          "type": "address"
        }
      ],
      "name": "TransferRestricted",
      "type": "error"
    },
    {
      "anonymous": false,
      "inputs": [
        {
          "indexed": true,
          "internalType": "address",
          "name": "account",
          "type": "address"
        },
        {
          "indexed": true,
          "internalType": "address",
          "name": "operator",
          "type": "address"
        },
        {
          "indexed": false,
          "internalType": "bool",
          "name": "approved",
          "type": "bool"
        }
      ],
      "name": "ApprovalForAll",
      "type": "event"
    },
    {
      "anonymous": false,
      "inputs": [
        {
          "indexed": true,
          "internalType": "uint256",
          "name": "courseId",
          "type": "uint256"
        },
        {
          "indexed": false,
          "internalType": "uint64",
          "name": "duration",
          "type": "uint64"
        },
        {
          "indexed": false,
          "internalType": "uint64",
          "name": "transferCooldown",
          "type": "uint64"
        }
      ],
      "name": "CourseConfigUpdated",
      "type": "event"
    },
    {
      "anonymous": false,
      "inputs": [
        {
          "indexed": true,
          "internalType": "uint256",
          "name": "courseId",
          "type": "uint256"
        },
        {
          "indexed": false,
          "internalType": "uint256",
          "name": "priceUSDC",
          "type": "uint256"
        },
        {
          "indexed": true,
          "internalType": "address",
          "name": "splitter",
          "type": "address"
        },
        {
          "indexed": true,
          "internalType": "address",
          "name": "creator",
          "type": "address"
        },
        {
          "indexed": false,
          "internalType": "uint64",
          "name": "duration",
          "type": "uint64"
        },
        {
          "indexed": false,
          "internalType": "uint64",
          "name": "transferCooldown",
          "type": "uint64"
        }
      ],
      "name": "CourseCreated",
      "type": "event"
    },
    {
      "anonymous": false,
      "inputs": [
        {
          "indexed": true,
          "internalType": "uint256",
          "name": "courseId",
          "type": "uint256"
        },
        {
          "indexed": false,
          "internalType": "uint256",
          "name": "oldPrice",
          "type": "uint256"
        },
        {
          "indexed": false,
          "internalType": "uint256",
          "name": "newPrice",
          "type": "uint256"
        }
      ],
      "name": "CoursePriceUpdated",
      "type": "event"
    },
    {
      "anonymous": false,
      "inputs": [
        {
          "indexed": true,
          "internalType": "uint256",
          "name": "courseId",
          "type": "uint256"
        },
        {
          "indexed": false,
          "internalType": "address",
          "name": "oldSplitter",
          "type": "address"
        },
        {
          "indexed": false,
          "internalType": "address",
          "name": "newSplitter",
          "type": "address"
        }
      ],
      "name": "CourseSplitterUpdated",
      "type": "event"
    },
    {
      "anonymous": false,
      "inputs": [
        {
          "indexed": true,
          "internalType": "uint256",
          "name": "courseId",
          "type": "uint256"
        },
        {
          "indexed": true,
          "internalType": "address",
          "name": "buyer",
          "type": "address"
        },
        {
          "indexed": false,
          "internalType": "uint256",
          "name": "amountPaid",
          "type": "uint256"
        },
        {
          "indexed": false,
          "internalType": "uint64",
          "name": "expiresAt",
          "type": "uint64"
        }
      ],
      "name": "PassMinted",
      "type": "event"
    },
    {
      "anonymous": false,
      "inputs": [
        {
          "indexed": true,
          "internalType": "uint256",
          "name": "courseId",
          "type": "uint256"
        },
        {
          "indexed": true,
          "internalType": "address",
          "name": "account",
          "type": "address"
        },
        {
          "indexed": false,
          "internalType": "uint256",
          "name": "amountPaid",
          "type": "uint256"
        },
        {
          "indexed": false,
          "internalType": "uint64",
          "name": "previousExpiry",
          "type": "uint64"
        },
        {
          "indexed": false,
          "internalType": "uint64",
          "name": "newExpiry",
          "type": "uint64"
        }
      ],
      "name": "PassRenewed",
      "type": "event"
    },
    {
      "anonymous": false,
      "inputs": [
        {
          "indexed": true,
          "internalType": "uint256",
          "name": "courseId",
          "type": "uint256"
        },
        {
          "indexed": true,
          "internalType": "address",
          "name": "account",
          "type": "address"
        },
        {
          "indexed": false,
          "internalType": "uint64",
          "name": "expiresAt",
          "type": "uint64"
        },
        {
          "indexed": false,
          "internalType": "uint64",
          "name": "cooldownEndsAt",
          "type": "uint64"
        }
      ],
      "name": "PassStateUpdated",
      "type": "event"
    },
    {
      "anonymous": false,
      "inputs": [
        {
          "indexed": false,
          "internalType": "address",
          "name": "account",
          "type": "address"
        }
      ],
      "name": "Paused",
      "type": "event"
    },
    {
      "anonymous": false,
      "inputs": [
        {
          "indexed": true,
          "internalType": "bytes32",
          "name": "role",
          "type": "bytes32"
        },
        {
          "indexed": true,
          "internalType": "bytes32",
          "name": "previousAdminRole",
          "type": "bytes32"
        },
        {
          "indexed": true,
          "internalType": "bytes32",
          "name": "newAdminRole",
          "type": "bytes32"
        }
      ],
      "name": "RoleAdminChanged",
      "type": "event"
    },
    {
      "anonymous": false,
      "inputs": [
        {
          "indexed": true,
          "internalType": "bytes32",
          "name": "role",
          "type": "bytes32"
        },
        {
          "indexed": true,
          "internalType": "address",
          "name": "account",
          "type": "address"
        },
        {
          "indexed": true,
          "internalType": "address",
          "name": "sender",
          "type": "address"
        }
      ],
      "name": "RoleGranted",
      "type": "event"
    },
    {
      "anonymous": false,
      "inputs": [
        {
          "indexed": true,
          "internalType": "bytes32",
          "name": "role",
          "type": "bytes32"
        },
        {
          "indexed": true,
          "internalType": "address",
          "name": "account",
          "type": "address"
        },
        {
          "indexed": true,
          "internalType": "address",
          "name": "sender",
          "type": "address"
        }
      ],
      "name": "RoleRevoked",
      "type": "event"
    },
    {
      "anonymous": false,
      "inputs": [
        {
          "indexed": true,
          "internalType": "address",
          "name": "operator",
          "type": "address"
        },
        {
          "indexed": true,
          "internalType": "address",
          "name": "from",
          "type": "address"
        },
        {
          "indexed": true,
          "internalType": "address",
          "name": "to",
          "type": "address"
        },
        {
          "indexed": false,
          "internalType": "uint256[]",
          "name": "ids",
          "type": "uint256[]"
        },
        {
          "indexed": false,
          "internalType": "uint256[]",
          "name": "values",
          "type": "uint256[]"
        }
      ],
      "name": "TransferBatch",
      "type": "event"
    },
    {
      "anonymous": false,
      "inputs": [
        {
          "indexed": true,
          "internalType": "address",
          "name": "operator",
          "type": "address"
        },
        {
          "indexed": true,
          "internalType": "address",
          "name": "from",
          "type": "address"
        },
        {
          "indexed": true,
          "internalType": "address",
          "name": "to",
          "type": "address"
        },
        {
          "indexed": false,
          "internalType": "uint256",
          "name": "id",
          "type": "uint256"
        },
        {
          "indexed": false,
          "internalType": "uint256",
          "name": "value",
          "type": "uint256"
        }
      ],
      "name": "TransferSingle",
      "type": "event"
    },
    {
      "anonymous": false,
      "inputs": [
        {
          "indexed": false,
          "internalType": "string",
          "name": "value",
          "type": "string"
        },
        {
          "indexed": true,
          "internalType": "uint256",
          "name": "id",
          "type": "uint256"
        }
      ],
      "name": "URI",
      "type": "event"
    },
    {
      "anonymous": false,
      "inputs": [
        {
          "indexed": false,
          "internalType": "address",
          "name": "account",
          "type": "address"
        }
      ],
      "name": "Unpaused",
      "type": "event"
    },
    {
      "inputs": [],
      "name": "ADMIN_ROLE",
      "outputs": [
        {
          "internalType": "bytes32",
          "name": "",
          "type": "bytes32"
        }
      ],
      "stateMutability": "view",
      "type": "function"
    },
    {
      "inputs": [],
      "name": "CREATOR_ROLE",
      "outputs": [
        {
          "internalType": "bytes32",
          "name": "",
          "type": "bytes32"
        }
      ],
      "stateMutability": "view",
      "type": "function"
    },
    {
      "inputs": [],
      "name": "DEFAULT_ADMIN_ROLE",
      "outputs": [
        {
          "internalType": "bytes32",
          "name": "",
          "type": "bytes32"
        }
      ],
      "stateMutability": "view",
      "type": "function"
    },
    {
      "inputs": [],
      "name": "MARKETPLACE_ROLE",
      "outputs": [
        {
          "internalType": "bytes32",
          "name": "",
          "type": "bytes32"
        }
      ],
      "stateMutability": "view",
      "type": "function"
    },
    {
      "inputs": [],
      "name": "REGISTRAR_ROLE",
      "outputs": [
        {
          "internalType": "bytes32",
          "name": "",
          "type": "bytes32"
        }
      ],
      "stateMutability": "view",
      "type": "function"
    },
    {
      "inputs": [
        {
          "internalType": "address",
          "name": "account",
          "type": "address"
        },
        {
          "internalType": "uint256",
          "name": "id",
          "type": "uint256"
        }
      ],
      "name": "balanceOf",
      "outputs": [
        {
          "internalType": "uint256",
          "name": "",
          "type": "uint256"
        }
      ],
      "stateMutability": "view",
      "type": "function"
    },
    {
      "inputs": [
        {
          "internalType": "address[]",
          "name": "accounts",
          "type": "address[]"
        },
        {
          "internalType": "uint256[]",
          "name": "ids",
          "type": "uint256[]"
        }
      ],
      "name": "balanceOfBatch",
      "outputs": [
        {
          "internalType": "uint256[]",
          "name": "",
          "type": "uint256[]"
        }
      ],
      "stateMutability": "view",
      "type": "function"
    },
    {
      "inputs": [
        {
          "internalType": "uint256",
          "name": "courseId",
          "type": "uint256"
        },
        {
          "internalType": "address",
          "name": "account",
          "type": "address"
        }
      ],
      "name": "canTransfer",
      "outputs": [
        {
          "internalType": "bool",
          "name": "eligible",
          "type": "bool"
        },
        {
          "internalType": "uint64",
          "name": "availableAt",
          "type": "uint64"
        },
        {
          "internalType": "uint64",
          "name": "expiresAt",
          "type": "uint64"
        }
      ],
      "stateMutability": "view",
      "type": "function"
    },
    {
      "inputs": [
        {
          "internalType": "uint256",
          "name": "courseId",
          "type": "uint256"
        },
        {
          "internalType": "uint256",
          "name": "priceUSDC",
          "type": "uint256"
        },
        {
          "internalType": "address",
          "name": "splitter",
          "type": "address"
        },
        {
          "internalType": "address",
          "name": "creator",
          "type": "address"
        },
        {
          "internalType": "uint64",
          "name": "duration",
          "type": "uint64"
        },
        {
          "internalType": "uint64",
          "name": "transferCooldown",
          "type": "uint64"
        }
      ],
      "name": "createCourse",
      "outputs": [],
      "stateMutability": "nonpayable",
      "type": "function"
    },
    {
      "inputs": [
        {
          "internalType": "uint256",
          "name": "id",
          "type": "uint256"
        }
      ],
      "name": "exists",
      "outputs": [
        {
          "internalType": "bool",
          "name": "",
          "type": "bool"
        }
      ],
      "stateMutability": "view",
      "type": "function"
    },
    {
      "inputs": [
        {
          "internalType": "uint256",
          "name": "courseId",
          "type": "uint256"
        },
        {
          "internalType": "address",
          "name": "account",
          "type": "address"
        },
        {
          "internalType": "uint256",
          "name": "amountPaid",
          "type": "uint256"
        },
        {
          "internalType": "uint64",
          "name": "additionalDuration",
          "type": "uint64"
        }
      ],
      "name": "extendPass",
      "outputs": [],
      "stateMutability": "nonpayable",
      "type": "function"
    },
    {
      "inputs": [
        {
          "internalType": "uint256",
          "name": "courseId",
          "type": "uint256"
        }
      ],
      "name": "getCourse",
      "outputs": [
        {
          "components": [
            {
              "internalType": "uint256",
              "name": "priceUSDC",
              "type": "uint256"
            },
            {
              "internalType": "address",
              "name": "splitter",
              "type": "address"
            },
            {
              "internalType": "address",
              "name": "creator",
              "type": "address"
            },
            {
              "internalType": "uint64",
              "name": "duration",
              "type": "uint64"
            },
            {
              "internalType": "uint64",
              "name": "transferCooldown",
              "type": "uint64"
            }
          ],
          "internalType": "struct MembershipPass1155.Course",
          "name": "",
          "type": "tuple"
        }
      ],
      "stateMutability": "view",
      "type": "function"
    },
    {
      "inputs": [
        {
          "internalType": "uint256",
          "name": "courseId",
          "type": "uint256"
        },
        {
          "internalType": "address",
          "name": "account",
          "type": "address"
        }
      ],
      "name": "getPassState",
      "outputs": [
        {
          "components": [
            {
              "internalType": "uint64",
              "name": "expiresAt",
              "type": "uint64"
            },
            {
              "internalType": "uint64",
              "name": "cooldownEndsAt",
              "type": "uint64"
            }
          ],
          "internalType": "struct MembershipPass1155.PassState",
          "name": "",
          "type": "tuple"
        }
      ],
      "stateMutability": "view",
      "type": "function"
    },
    {
      "inputs": [
        {
          "internalType": "bytes32",
          "name": "role",
          "type": "bytes32"
        }
      ],
      "name": "getRoleAdmin",
      "outputs": [
        {
          "internalType": "bytes32",
          "name": "",
          "type": "bytes32"
        }
      ],
      "stateMutability": "view",
      "type": "function"
    },
    {
      "inputs": [
        {
          "internalType": "bytes32",
          "name": "role",
          "type": "bytes32"
        },
        {
          "internalType": "address",
          "name": "account",
          "type": "address"
        }
      ],
      "name": "grantRole",
      "outputs": [],
      "stateMutability": "nonpayable",
      "type": "function"
    },
    {
      "inputs": [
        {
          "internalType": "address",
          "name": "account",
          "type": "address"
        },
        {
          "internalType": "uint256",
          "name": "courseId",
          "type": "uint256"
        }
      ],
      "name": "hasPass",
      "outputs": [
        {
          "internalType": "bool",
          "name": "",
          "type": "bool"
        }
      ],
      "stateMutability": "view",
      "type": "function"
    },
    {
      "inputs": [
        {
          "internalType": "bytes32",
          "name": "role",
          "type": "bytes32"
        },
        {
          "internalType": "address",
          "name": "account",
          "type": "address"
        }
      ],
      "name": "hasRole",
      "outputs": [
        {
          "internalType": "bool",
          "name": "",
          "type": "bool"
        }
      ],
      "stateMutability": "view",
      "type": "function"
    },
    {
      "inputs": [
        {
          "internalType": "address",
          "name": "account",
          "type": "address"
        },
        {
          "internalType": "address",
          "name": "operator",
          "type": "address"
        }
      ],
      "name": "isApprovedForAll",
      "outputs": [
        {
          "internalType": "bool",
          "name": "",
          "type": "bool"
        }
      ],
      "stateMutability": "view",
      "type": "function"
    },
    {
      "inputs": [
        {
          "internalType": "uint256",
          "name": "courseId",
          "type": "uint256"
        },
        {
          "internalType": "address",
          "name": "account",
          "type": "address"
        }
      ],
      "name": "isPassActive",
      "outputs": [
        {
          "internalType": "bool",
          "name": "",
          "type": "bool"
        }
      ],
      "stateMutability": "view",
      "type": "function"
    },
    {
      "inputs": [
        {
          "internalType": "address",
          "name": "to",
          "type": "address"
        },
        {
          "internalType": "uint256",
          "name": "courseId",
          "type": "uint256"
        },
        {
          "internalType": "uint256",
          "name": "amountPaid",
          "type": "uint256"
        }
      ],
      "name": "marketplaceMint",
      "outputs": [],
      "stateMutability": "nonpayable",
      "type": "function"
    },
    {
      "inputs": [],
      "name": "pause",
      "outputs": [],
      "stateMutability": "nonpayable",
      "type": "function"
    },
    {
      "inputs": [],
      "name": "paused",
      "outputs": [
        {
          "internalType": "bool",
          "name": "",
          "type": "bool"
        }
      ],
      "stateMutability": "view",
      "type": "function"
    },
    {
      "inputs": [
        {
          "internalType": "bytes32",
          "name": "role",
          "type": "bytes32"
        },
        {
          "internalType": "address",
          "name": "callerConfirmation",
          "type": "address"
        }
      ],
      "name": "renounceRole",
      "outputs": [],
      "stateMutability": "nonpayable",
      "type": "function"
    },
    {
      "inputs": [
        {
          "internalType": "bytes32",
          "name": "role",
          "type": "bytes32"
        },
        {
          "internalType": "address",
          "name": "account",
          "type": "address"
        }
      ],
      "name": "revokeRole",
      "outputs": [],
      "stateMutability": "nonpayable",
      "type": "function"
    },
    {
      "inputs": [
        {
          "internalType": "address",
          "name": "from",
          "type": "address"
        },
        {
          "internalType": "address",
          "name": "to",
          "type": "address"
        },
        {
          "internalType": "uint256[]",
          "name": "ids",
          "type": "uint256[]"
        },
        {
          "internalType": "uint256[]",
          "name": "values",
          "type": "uint256[]"
        },
        {
          "internalType": "bytes",
          "name": "data",
          "type": "bytes"
        }
      ],
      "name": "safeBatchTransferFrom",
      "outputs": [],
      "stateMutability": "nonpayable",
      "type": "function"
    },
    {
      "inputs": [
        {
          "internalType": "address",
          "name": "from",
          "type": "address"
        },
        {
          "internalType": "address",
          "name": "to",
          "type": "address"
        },
        {
          "internalType": "uint256",
          "name": "id",
          "type": "uint256"
        },
        {
          "internalType": "uint256",
          "name": "value",
          "type": "uint256"
        },
        {
          "internalType": "bytes",
          "name": "data",
          "type": "bytes"
        }
      ],
      "name": "safeTransferFrom",
      "outputs": [],
      "stateMutability": "nonpayable",
      "type": "function"
    },
    {
      "inputs": [
        {
          "internalType": "address",
          "name": "operator",
          "type": "address"
        },
        {
          "internalType": "bool",
          "name": "approved",
          "type": "bool"
        }
      ],
      "name": "setApprovalForAll",
      "outputs": [],
      "stateMutability": "nonpayable",
      "type": "function"
    },
    {
      "inputs": [
        {
          "internalType": "uint256",
          "name": "courseId",
          "type": "uint256"
        },
        {
          "internalType": "uint64",
          "name": "duration",
          "type": "uint64"
        },
        {
          "internalType": "uint64",
          "name": "transferCooldown",
          "type": "uint64"
        }
      ],
      "name": "setCourseConfig",
      "outputs": [],
      "stateMutability": "nonpayable",
      "type": "function"
    },
    {
      "inputs": [
        {
          "internalType": "uint256",
          "name": "courseId",
          "type": "uint256"
        },
        {
          "internalType": "uint256",
          "name": "newPriceUSDC",
          "type": "uint256"
        }
      ],
      "name": "setPrice",
      "outputs": [],
      "stateMutability": "nonpayable",
      "type": "function"
    },
    {
      "inputs": [
        {
          "internalType": "uint256",
          "name": "courseId",
          "type": "uint256"
        },
        {
          "internalType": "address",
          "name": "newSplitter",
          "type": "address"
        }
      ],
      "name": "setSplitter",
      "outputs": [],
      "stateMutability": "nonpayable",
      "type": "function"
    },
    {
      "inputs": [
        {
          "internalType": "string",
          "name": "newURI",
          "type": "string"
        }
      ],
      "name": "setURI",
      "outputs": [],
      "stateMutability": "nonpayable",
      "type": "function"
    },
    {
      "inputs": [
        {
          "internalType": "bytes4",
          "name": "interfaceId",
          "type": "bytes4"
        }
      ],
      "name": "supportsInterface",
      "outputs": [
        {
          "internalType": "bool",
          "name": "",
          "type": "bool"
        }
      ],
      "stateMutability": "view",
      "type": "function"
    },
    {
      "inputs": [],
      "name": "totalSupply",
      "outputs": [
        {
          "internalType": "uint256",
          "name": "",
          "type": "uint256"
        }
      ],
      "stateMutability": "view",
      "type": "function"
    },
    {
      "inputs": [
        {
          "internalType": "uint256",
          "name": "id",
          "type": "uint256"
        }
      ],
      "name": "totalSupply",
      "outputs": [
        {
          "internalType": "uint256",
          "name": "",
          "type": "uint256"
        }
      ],
      "stateMutability": "view",
      "type": "function"
    },
    {
      "inputs": [],
      "name": "unpause",
      "outputs": [],
      "stateMutability": "nonpayable",
      "type": "function"
    },
    {
      "inputs": [
        {
          "internalType": "uint256",
          "name": "",
          "type": "uint256"
        }
      ],
      "name": "uri",
      "outputs": [
        {
          "internalType": "string",
          "name": "",
          "type": "string"
        }
      ],
      "stateMutability": "view",
      "type": "function"
    },
    {
      "inputs": [],
      "name": "usdc",
      "outputs": [
        {
          "internalType": "contract IERC20",
          "name": "",
          "type": "address"
        }
      ],
      "stateMutability": "view",
      "type": "function"
    }
  ],
  "bytecode": "0x60a060405234801561001057600080fd5b5060405161337f38038061337f83398101604081905261002f916101d7565b81610039816100d9565b5060016007556001600160a01b03831661008d5760405162461bcd60e51b8152602060048201526011602482015270555344432061646472657373207a65726f60781b604482015260640160405180910390fd5b6001600160a01b0383166080526100a56000826100e9565b506100d07fa49807205ce4d355092ef5a8a18f56e8913cf4a201fbe287825b095693c21775826100e9565b5050505061040e565b60026100e5828261034f565b5050565b60008281526005602090815260408083206001600160a01b038516845290915281205460ff1661018f5760008381526005602090815260408083206001600160a01b03861684529091529020805460ff191660011790556101473390565b6001600160a01b0316826001600160a01b0316847f2f8788117e7eff1d82e926ec794901d17c78024a50270940304540a733656f0d60405160405180910390a4506001610193565b5060005b92915050565b6001600160a01b03811681146101ae57600080fd5b50565b634e487b7160e01b600052604160045260246000fd5b80516101d281610199565b919050565b6000806000606084860312156101ec57600080fd5b83516101f781610199565b602085810151919450906001600160401b038082111561021657600080fd5b818701915087601f83011261022a57600080fd5b81518181111561023c5761023c6101b1565b604051601f8201601f19908116603f01168101908382118183101715610264576102646101b1565b816040528281528a8684870101111561027c57600080fd5b600093505b8284101561029e5784840186015181850187015292850192610281565b60008684830101528097505050505050506102bb604085016101c7565b90509250925092565b600181811c908216806102d857607f821691505b6020821081036102f857634e487b7160e01b600052602260045260246000fd5b50919050565b601f82111561034a576000816000526020600020601f850160051c810160208610156103275750805b601f850160051c820191505b8181101561034657828155600101610333565b5050505b505050565b81516001600160401b03811115610368576103686101b1565b61037c8161037684546102c4565b846102fe565b602080601f8311600181146103b157600084156103995750858301515b600019600386901b1c1916600185901b178555610346565b600085815260208120601f198616915b828110156103e0578886015182559484019460019091019084016103c1565b50858210156103fe5787850151600019600388901b60f8161c191681555b5050505050600190811b01905550565b608051612f5661042960003960006103cc0152612f566000f3fe608060405234801561001057600080fd5b50600436106102265760003560e01c80635b64bd3011610130578063a217fddf116100b8578063d547741f1161007c578063d547741f14610604578063e985e9c514610617578063f242432a1461062a578063f68e95531461063d578063f7d975771461066457600080fd5b8063a217fddf146105a1578063a22cb465146105a9578063bd85b039146105bc578063c20728f8146105dc578063c3439f3f146105ef57600080fd5b80638456cb59116100ff5780638456cb59146105395780638aeda25a146105415780638ec77e761461056857806391d148541461057b5780639e9f0e931461058e57600080fd5b80635b64bd30146104765780635c975abb1461050657806375b238fc1461051157806384429c531461052657600080fd5b80632eb2c2d6116101b35780633f4ba83a116101825780633f4ba83a146104065780634e1273f41461040e5780634f558e791461042e5780634f7efa9c146104505780635330040f1461046357600080fd5b80632eb2c2d61461038e5780632f2ff15d146103a157806336568abe146103b45780633e413bee146103c757600080fd5b80630e2f78ba116101fa5780630e2f78ba146102f65780630e89341c1461033057806318160ddd146103505780631e81756214610358578063248a9ca31461036b57600080fd5b8062fdd58e1461022b57806301ffc9a71461025157806302fe5305146102745780630b91e28d14610289575b600080fd5b61023e61023936600461260b565b610677565b6040519081526020015b60405180910390f35b61026461025f36600461264b565b61069f565b6040519015158152602001610248565b610287610282366004612705565b6106aa565b005b61029c610297366004612755565b6106cf565b60408051825181526020808401516001600160a01b03908116918301919091528383015116918101919091526060808301516001600160401b0390811691830191909152608092830151169181019190915260a001610248565b61030961030436600461276e565b610703565b6040805193151584526001600160401b039283166020850152911690820152606001610248565b61034361033e366004612755565b6107d5565b60405161024891906127e0565b60045461023e565b61028761036636600461280a565b610869565b61023e610379366004612755565b60009081526005602052604090206001015490565b61028761039c366004612902565b610aa3565b6102876103af36600461276e565b610b0a565b6102876103c236600461276e565b610b2f565b6103ee7f000000000000000000000000000000000000000000000000000000000000000081565b6040516001600160a01b039091168152602001610248565b610287610b67565b61042161041c3660046129ab565b610b8a565b6040516102489190612aa6565b61026461043c366004612755565b600090815260036020526040902054151590565b61028761045e366004612ab9565b610c56565b61026461047136600461276e565b610d4b565b6104df61048436600461276e565b60408051808201825260008082526020918201819052938452600981528184206001600160a01b03939093168452918252918290208251808401909352546001600160401b038082168452600160401b909104169082015290565b6040805182516001600160401b039081168252602093840151169281019290925201610248565b60065460ff16610264565b61023e600080516020612f0183398151915281565b61028761053436600461276e565b610dd5565b610287610ed8565b61023e7f828634d95e775031b9ff576b159a8509d3053581a8c9c4d7d86899e0afcd882f81565b61026461057636600461260b565b610ef8565b61026461058936600461276e565b610f0b565b61028761059c366004612aec565b610f36565b61023e600081565b6102876105b7366004612b52565b611201565b61023e6105ca366004612755565b60009081526003602052604090205490565b6102876105ea366004612b8e565b61120c565b61023e600080516020612ee183398151915281565b61028761061236600461276e565b61132f565b610264610625366004612bca565b611354565b610287610638366004612bf4565b611382565b61023e7fedcc084d3dcd65a1f7f23c65c46722faca6953d28e43150a467cf43e5c30923881565b610287610672366004612c58565b6113e1565b6000818152602081815260408083206001600160a01b03861684529091529020545b92915050565b6000610699826114b3565b600080516020612f018339815191526106c2816114d8565b6106cb826114e2565b5050565b6040805160a081018252600080825260208201819052918101829052606081018290526080810191909152610699826114ee565b60008281526009602090815260408083206001600160a01b038516845282528083208151808301909252546001600160401b03808216808452600160401b909204169282018390529083806107588789610677565b119050600082600001516001600160401b03166000148061078657504283600001516001600160401b031610155b9050600083602001516001600160401b0316600014806107b357504284602001516001600160401b031611155b90508280156107bf5750815b80156107c85750805b9650505050509250925092565b6060600280546107e490612c7a565b80601f016020809104026020016040519081016040528092919081815260200182805461081090612c7a565b801561085d5780601f106108325761010080835404028352916020019161085d565b820191906000526020600020905b81548152906001019060200180831161084057829003601f168201915b50505050509050919050565b6108716115a0565b6108796115ca565b600080516020612ee1833981519152610891816114d8565b816001600160401b03166000036108bb57604051637616640160e01b815260040160405180910390fd5b60006108c6866114ee565b8051909150158015906108d95750805184105b1561090957805160405163ce6b173b60e01b81526004810191909152602481018590526044015b60405180910390fd5b6109138587610677565b6000036109455760405163ad34f07b60e01b8152600481018790526001600160a01b0386166024820152604401610900565b60008681526009602090815260408083206001600160a01b03891684529091528120805490916001600160401b03909116904282116109845742610986565b815b9050600061099482886115f0565b845467ffffffffffffffff19166001600160401b03821617855590506109b985611622565b84546fffffffffffffffff00000000000000001916600160401b6001600160401b0392831602178555604080518a81528583166020820152918316908201526001600160a01b038a16908b907f51573726fe18c158eeed2386d035f788e81c93715351219f73a5493a293f8f449060600160405180910390a38354604080516001600160401b038085168252600160401b90930490921660208301526001600160a01b038b16918c917f6c9b5717d6d84a5cc938c626ff94c2e04f253f5b4f4534c2df896a1a8e2ffda5910160405180910390a3505050505050610a9d6001600755565b50505050565b336001600160a01b0386168114801590610ac45750610ac28682611354565b155b15610af55760405163711bec9160e11b81526001600160a01b03808316600483015287166024820152604401610900565b610b02868686868661164f565b505050505050565b600082815260056020526040902060010154610b25816114d8565b610a9d83836116b6565b6001600160a01b0381163314610b585760405163334bd91960e11b815260040160405180910390fd5b610b62828261174a565b505050565b600080516020612f01833981519152610b7f816114d8565b610b876117b7565b50565b60608151835114610bbb5781518351604051635b05999160e01b815260048101929092526024820152604401610900565b600083516001600160401b03811115610bd657610bd6612668565b604051908082528060200260200182016040528015610bff578160200160208202803683370190505b50905060005b8451811015610c4e57602080820286010151610c2990602080840287010151610677565b828281518110610c3b57610c3b612cb4565b6020908102919091010152600101610c05565b509392505050565b610c5e6115a0565b610c666115ca565b600080516020612ee1833981519152610c7e816114d8565b6000610c89846114ee565b805190915015801590610c9c5750805183105b15610cc757805160405163ce6b173b60e01b8152600481019190915260248101849052604401610900565b6000610cd282611809565b9050610cf08686600160405180602001604052806000815250611836565b604080518581526001600160401b03831660208201526001600160a01b0388169187917fbd1b09c41c4f6e036c7158ef71fed4b0a058cccfb14651698db7cbb1b88b2a07910160405180910390a3505050610b626001600755565b6000610d578284610677565b600003610d6657506000610699565b60008381526009602090815260408083206001600160a01b038616845282528083208151808301909252546001600160401b03808216808452600160401b90920416928201929092529103610dbf576001915050610699565b51426001600160401b0390911610159392505050565b610ddd6115ca565b600082815260086020526040902060018101546001600160a01b0316610e195760405163071a106f60e11b815260048101849052602401610900565b610e238333611893565b610e495760405163266b177160e01b815260048101849052336024820152604401610900565b6001600160a01b038216610e705760405163eed7778f60e01b815260040160405180910390fd5b6001810180546001600160a01b038481166001600160a01b0319831681179093556040805191909216808252602082019390935285917f36297e9bd2a333d7a91dd9a853faeca26ea2cdf6c265d17f963acf30b65935fd91015b60405180910390a250505050565b600080516020612f01833981519152610ef0816114d8565b610b876118d8565b6000610f048284610d4b565b9392505050565b60009182526005602090815260408084206001600160a01b0393909316845291905290205460ff1690565b610f3e6115ca565b7fedcc084d3dcd65a1f7f23c65c46722faca6953d28e43150a467cf43e5c309238610f68816114d8565b6000878152600860205260409020600101546001600160a01b031615610fa457604051636f7e2eeb60e01b815260048101889052602401610900565b6001600160a01b038516610fcb5760405163eed7778f60e01b815260040160405180910390fd5b85600003610fec576040516316334f8560e11b815260040160405180910390fd5b6001600160401b03838116148061100b57506001600160401b03828116145b1561102957604051637616640160e01b815260040160405180910390fd5b6040518060a00160405280878152602001866001600160a01b03168152602001856001600160a01b03168152602001846001600160401b03168152602001836001600160401b0316815250600860008981526020019081526020016000206000820151816000015560208201518160010160006101000a8154816001600160a01b0302191690836001600160a01b0316021790555060408201518160020160006101000a8154816001600160a01b0302191690836001600160a01b0316021790555060608201518160020160146101000a8154816001600160401b0302191690836001600160401b0316021790555060808201518160030160006101000a8154816001600160401b0302191690836001600160401b0316021790555090505060006001600160a01b0316846001600160a01b03161461118e5761118c7f828634d95e775031b9ff576b159a8509d3053581a8c9c4d7d86899e0afcd882f856116b6565b505b836001600160a01b0316856001600160a01b0316887fa60ec735ac1d6aaa44f00a1d947cdabb91b1bc88ad363a91dcb1d4b9d96344ce8987876040516111f0939291909283526001600160401b03918216602084015216604082015260600190565b60405180910390a450505050505050565b6106cb338383611915565b6112146115ca565b600080516020612f0183398151915261122c816114d8565b600084815260086020526040902060018101546001600160a01b03166112685760405163071a106f60e11b815260048101869052602401610900565b6001600160401b03848116148061128757506001600160401b03838116145b156112a557604051637616640160e01b815260040160405180910390fd5b60028101805467ffffffffffffffff60a01b1916600160a01b6001600160401b038781169182029290921790925560038301805467ffffffffffffffff1916918616918217905560408051928352602083019190915286917f7de2ba5d395df24f909b467e5f700a471d16fc3ce7f87889e15ae83b6eb31474910160405180910390a25050505050565b60008281526005602052604090206001015461134a816114d8565b610a9d838361174a565b6001600160a01b03918216600090815260016020908152604080832093909416825291909152205460ff1690565b336001600160a01b03861681148015906113a357506113a18682611354565b155b156113d45760405163711bec9160e11b81526001600160a01b03808316600483015287166024820152604401610900565b610b0286868686866119ab565b6113e96115ca565b600082815260086020526040902060018101546001600160a01b03166114255760405163071a106f60e11b815260048101849052602401610900565b61142f8333611893565b6114555760405163266b177160e01b815260048101849052336024820152604401610900565b81600003611476576040516316334f8560e11b815260040160405180910390fd5b8054828255604080518281526020810185905285917f94400b4ef307fffa575bb3402c4a7f580f0098387e8909e4cc269fedaef8a0379101610eca565b60006001600160e01b03198216637965db0b60e01b1480610699575061069982611a39565b610b878133611a89565b60026106cb8282612d12565b6040805160a081018252600080825260208201819052918101829052606081018290526080810191909152600082815260086020908152604091829020825160a0810184528154815260018201546001600160a01b03908116938201849052600283015490811694820194909452600160a01b9093046001600160401b0390811660608501526003909101541660808301526106995760405163071a106f60e11b815260048101849052602401610900565b6002600754036115c357604051633ee5aeb560e01b815260040160405180910390fd5b6002600755565b60065460ff16156115ee5760405163d93c066560e01b815260040160405180910390fd5b565b60008282016001600160401b038085169082161015610f0457604051637616640160e01b815260040160405180910390fd5b600081608001516001600160401b031660000361164157506000919050565b6106994283608001516115f0565b6001600160a01b03841661167957604051632bfa23e760e11b815260006004820152602401610900565b6001600160a01b0385166116a257604051626a0d4560e21b815260006004820152602401610900565b6116af8585858585611ac2565b5050505050565b60006116c28383610f0b565b6117425760008381526005602090815260408083206001600160a01b03861684529091529020805460ff191660011790556116fa3390565b6001600160a01b0316826001600160a01b0316847f2f8788117e7eff1d82e926ec794901d17c78024a50270940304540a733656f0d60405160405180910390a4506001610699565b506000610699565b60006117568383610f0b565b156117425760008381526005602090815260408083206001600160a01b0386168085529252808320805460ff1916905551339286917ff6391f5c32d9c69d2a47ea670b442974b53935d1edc7fd64eb21e047a839171b9190a4506001610699565b6117bf611b15565b6006805460ff191690557f5db9ee0a495bf2e6ff9c91a7834c1ba4fdd244a5e8aa4e537bd38aeae4b073aa335b6040516001600160a01b03909116815260200160405180910390a1565b600081606001516001600160401b031660000361182857506000919050565b6106994283606001516115f0565b6001600160a01b03841661186057604051632bfa23e760e11b815260006004820152602401610900565b60408051600180825260208201869052818301908152606082018590526080820190925290610b02600087848487611ac2565b60006118ad600080516020612f0183398151915283610f0b565b80610f04575050600091825260086020526040909120600201546001600160a01b0391821691161490565b6118e06115ca565b6006805460ff191660011790557f62e78cea01bee320cd4e420270b5ea74000d11b0c9f74754ebdbfc544b05a2586117ec3390565b6001600160a01b03821661193e5760405162ced3e160e81b815260006004820152602401610900565b6001600160a01b03838116600081815260016020908152604080832094871680845294825291829020805460ff191686151590811790915591519182527f17307eab39ab6107e8899845ad3d59bd9653f200f220920489ca2b5937696c31910160405180910390a3505050565b6001600160a01b0384166119d557604051632bfa23e760e11b815260006004820152602401610900565b6001600160a01b0385166119fe57604051626a0d4560e21b815260006004820152602401610900565b60408051600180825260208201869052818301908152606082018590526080820190925290611a308787848487611ac2565b50505050505050565b60006001600160e01b03198216636cdb3d1360e11b1480611a6a57506001600160e01b031982166303a24d0760e21b145b8061069957506301ffc9a760e01b6001600160e01b0319831614610699565b611a938282610f0b565b6106cb5760405163e2517d3f60e01b81526001600160a01b038216600482015260248101839052604401610900565b611ace85858585611b38565b6001600160a01b038416156116af5782513390600103611b075760208481015190840151611b00838989858589611ccb565b5050610b02565b610b02818787878787611def565b60065460ff166115ee57604051638dfc202b60e01b815260040160405180910390fd5b6001600160a01b03841615801590611b5857506001600160a01b03831615155b8015611b795750611b77600080516020612ee183398151915233610f0b565b155b15611b9957604051630589788760e41b8152336004820152602401610900565b60005b8251811015611cbe576000828281518110611bb957611bb9612cb4565b6020026020010151905060006001600160a01b0316866001600160a01b031603611c0657611c01848381518110611bf257611bf2612cb4565b60200260200101518683611ed8565b611cb5565b6001600160a01b038516611c6d5760096000858481518110611c2a57611c2a612cb4565b602090810291909101810151825281810192909252604090810160009081206001600160a01b038a168252909252902080546001600160801b0319169055611cb5565b611c91848381518110611c8257611c82612cb4565b60200260200101518783612016565b611cb5848381518110611ca657611ca6612cb4565b60200260200101518787612196565b50600101611b9c565b50610a9d848484846122ef565b6001600160a01b0384163b15610b025760405163f23a6e6160e01b81526001600160a01b0385169063f23a6e6190611d0f9089908990889088908890600401612dd1565b6020604051808303816000875af1925050508015611d4a575060408051601f3d908101601f19168201909252611d4791810190612e16565b60015b611db3573d808015611d78576040519150601f19603f3d011682016040523d82523d6000602084013e611d7d565b606091505b508051600003611dab57604051632bfa23e760e11b81526001600160a01b0386166004820152602401610900565b805181602001fd5b6001600160e01b0319811663f23a6e6160e01b14611a3057604051632bfa23e760e11b81526001600160a01b0386166004820152602401610900565b6001600160a01b0384163b15610b025760405163bc197c8160e01b81526001600160a01b0385169063bc197c8190611e339089908990889088908890600401612e33565b6020604051808303816000875af1925050508015611e6e575060408051601f3d908101601f19168201909252611e6b91810190612e16565b60015b611e9c573d808015611d78576040519150601f19603f3d011682016040523d82523d6000602084013e611d7d565b6001600160e01b0319811663bc197c8160e01b14611a3057604051632bfa23e760e11b81526001600160a01b0386166004820152602401610900565b80600114611f325760405162461bcd60e51b815260206004820152602160248201527f4d656d62657273686970206d696e7473207265717569726520616d6f756e74206044820152603160f81b6064820152608401610900565b6000611f3d846114ee565b90506000611f4a82611809565b90506000611f5783611622565b6040805180820182526001600160401b038086168252808416602080840191825260008c8152600982528581206001600160a01b038d1680835292528590209351845492518416600160401b026001600160801b03199093169316929092171790915590519192509087907f6c9b5717d6d84a5cc938c626ff94c2e04f253f5b4f4534c2df896a1a8e2ffda59061200690869086906001600160401b0392831681529116602082015260400190565b60405180910390a3505050505050565b806001146120745760405162461bcd60e51b815260206004820152602560248201527f4d656d62657273686970207472616e7366657273207265717569726520616d6f604482015264756e74203160d81b6064820152608401610900565b6001600160a01b03821615610b625760008381526009602090815260408083206001600160a01b03861684528252918290208251808401909352546001600160401b03808216808552600160401b9092041691830191909152158015906120e757504281600001516001600160401b0316105b1561212957805160405163018f520b60e01b8152600481018690526001600160a01b03851660248201526001600160401b039091166044820152606401610900565b60208101516001600160401b03161580159061215157504281602001516001600160401b0316115b15610a9d576020810151604051630b38c21360e21b8152600481018690526001600160a01b03851660248201526001600160401b039091166044820152606401610900565b60008381526009602090815260408083206001600160a01b038616808552818452828520835180850190945280546001600160401b038082168652600160401b82041685870152918652919093526001600160801b0319909216909155906121fd856114ee565b9050600081608001516001600160401b0316600014612229576122244283608001516115f0565b61222c565b60005b83516040805180820182526001600160401b038084168252808516602080840191825260008d8152600982528581206001600160a01b038d1680835292528590209351845492518416600160401b026001600160801b0319909316931692909217179091559051929350909188907f6c9b5717d6d84a5cc938c626ff94c2e04f253f5b4f4534c2df896a1a8e2ffda5906122de90859087906001600160401b0392831681529116602082015260400190565b60405180910390a350505050505050565b6122fb848484846123db565b6001600160a01b03841661237b576000805b83518110156123615760208181028481018201519086018201516000908152600390925260408220805491928392612346908490612e91565b9091555061235690508184612e91565b92505060010161230d565b5080600460008282546123749190612e91565b9091555050505b6001600160a01b038316610a9d576000805b83518110156123ca57602081810284810182015190860182015160009081526003909252604090912080548290039055919091019060010161238d565b506004805491909103905550505050565b805182511461240a5781518151604051635b05999160e01b815260048101929092526024820152604401610900565b3360005b8351811015612510576020818102858101820151908501909101516001600160a01b038816156124c1576000828152602081815260408083206001600160a01b038c1684529091529020548181101561249a576040516303dee4c560e01b81526001600160a01b038a166004820152602481018290526044810183905260648101849052608401610900565b6000838152602081815260408083206001600160a01b038d16845290915290209082900390555b6001600160a01b03871615612506576000828152602081815260408083206001600160a01b038b16845290915281208054839290612500908490612e91565b90915550505b505060010161240e565b5082516001036125915760208301516000906020840151909150856001600160a01b0316876001600160a01b0316846001600160a01b03167fc3d58168c5ae7397731d063d5bbf3d657854427343f4c083240f7aacaa2d0f628585604051612582929190918252602082015260400190565b60405180910390a450506116af565b836001600160a01b0316856001600160a01b0316826001600160a01b03167f4a39dc06d4c0dbc64b70af90fd698a233a518aa5d07e595d983b8c0526c8f7fb86866040516125e0929190612eb2565b60405180910390a45050505050565b80356001600160a01b038116811461260657600080fd5b919050565b6000806040838503121561261e57600080fd5b612627836125ef565b946020939093013593505050565b6001600160e01b031981168114610b8757600080fd5b60006020828403121561265d57600080fd5b8135610f0481612635565b634e487b7160e01b600052604160045260246000fd5b604051601f8201601f191681016001600160401b03811182821017156126a6576126a6612668565b604052919050565b60006001600160401b038311156126c7576126c7612668565b6126da601f8401601f191660200161267e565b90508281528383830111156126ee57600080fd5b828260208301376000602084830101529392505050565b60006020828403121561271757600080fd5b81356001600160401b0381111561272d57600080fd5b8201601f8101841361273e57600080fd5b61274d848235602084016126ae565b949350505050565b60006020828403121561276757600080fd5b5035919050565b6000806040838503121561278157600080fd5b82359150612791602084016125ef565b90509250929050565b6000815180845260005b818110156127c0576020818501810151868301820152016127a4565b506000602082860101526020601f19601f83011685010191505092915050565b602081526000610f04602083018461279a565b80356001600160401b038116811461260657600080fd5b6000806000806080858703121561282057600080fd5b84359350612830602086016125ef565b925060408501359150612845606086016127f3565b905092959194509250565b60006001600160401b0382111561286957612869612668565b5060051b60200190565b600082601f83011261288457600080fd5b8135602061289961289483612850565b61267e565b8083825260208201915060208460051b8701019350868411156128bb57600080fd5b602086015b848110156128d757803583529183019183016128c0565b509695505050505050565b600082601f8301126128f357600080fd5b610f04838335602085016126ae565b600080600080600060a0868803121561291a57600080fd5b612923866125ef565b9450612931602087016125ef565b935060408601356001600160401b038082111561294d57600080fd5b61295989838a01612873565b9450606088013591508082111561296f57600080fd5b61297b89838a01612873565b9350608088013591508082111561299157600080fd5b5061299e888289016128e2565b9150509295509295909350565b600080604083850312156129be57600080fd5b82356001600160401b03808211156129d557600080fd5b818501915085601f8301126129e957600080fd5b813560206129f961289483612850565b82815260059290921b84018101918181019089841115612a1857600080fd5b948201945b83861015612a3d57612a2e866125ef565b82529482019490820190612a1d565b96505086013592505080821115612a5357600080fd5b50612a6085828601612873565b9150509250929050565b60008151808452602080850194506020840160005b83811015612a9b57815187529582019590820190600101612a7f565b509495945050505050565b602081526000610f046020830184612a6a565b600080600060608486031215612ace57600080fd5b612ad7846125ef565b95602085013595506040909401359392505050565b60008060008060008060c08789031215612b0557600080fd5b8635955060208701359450612b1c604088016125ef565b9350612b2a606088016125ef565b9250612b38608088016127f3565b9150612b4660a088016127f3565b90509295509295509295565b60008060408385031215612b6557600080fd5b612b6e836125ef565b915060208301358015158114612b8357600080fd5b809150509250929050565b600080600060608486031215612ba357600080fd5b83359250612bb3602085016127f3565b9150612bc1604085016127f3565b90509250925092565b60008060408385031215612bdd57600080fd5b612be6836125ef565b9150612791602084016125ef565b600080600080600060a08688031215612c0c57600080fd5b612c15866125ef565b9450612c23602087016125ef565b9350604086013592506060860135915060808601356001600160401b03811115612c4c57600080fd5b61299e888289016128e2565b60008060408385031215612c6b57600080fd5b50508035926020909101359150565b600181811c90821680612c8e57607f821691505b602082108103612cae57634e487b7160e01b600052602260045260246000fd5b50919050565b634e487b7160e01b600052603260045260246000fd5b601f821115610b62576000816000526020600020601f850160051c81016020861015612cf35750805b601f850160051c820191505b81811015610b0257828155600101612cff565b81516001600160401b03811115612d2b57612d2b612668565b612d3f81612d398454612c7a565b84612cca565b602080601f831160018114612d745760008415612d5c5750858301515b600019600386901b1c1916600185901b178555610b02565b600085815260208120601f198616915b82811015612da357888601518255948401946001909101908401612d84565b5085821015612dc15787850151600019600388901b60f8161c191681555b5050505050600190811b01905550565b6001600160a01b03868116825285166020820152604081018490526060810183905260a060808201819052600090612e0b9083018461279a565b979650505050505050565b600060208284031215612e2857600080fd5b8151610f0481612635565b6001600160a01b0386811682528516602082015260a060408201819052600090612e5f90830186612a6a565b8281036060840152612e718186612a6a565b90508281036080840152612e85818561279a565b98975050505050505050565b8082018082111561069957634e487b7160e01b600052601160045260246000fd5b604081526000612ec56040830185612a6a565b8281036020840152612ed78185612a6a565b9594505050505056fe0ea61da3a8a09ad801432653699f8c1860b1ae9d2ea4a141fadfd63227717bc8a49807205ce4d355092ef5a8a18f56e8913cf4a201fbe287825b095693c21775a26469706673582212201e31238acfc38ef6b6122d2eaae2cbd17464e98ab895f71ff44643c407039e1f64736f6c63430008190033",
  "linkReferences": {},
  "deployedLinkReferences": {}
}